{
  "contractName": "NFT",
  "abi": [
    {
      "inputs": [],
      "stateMutability": "nonpayable",
      "type": "constructor"
    },
    {
      "anonymous": false,
      "inputs": [
        {
          "indexed": true,
          "internalType": "address",
          "name": "by",
          "type": "address"
        },
        {
          "indexed": false,
          "internalType": "uint256",
          "name": "nftId",
          "type": "uint256"
        }
      ],
      "name": "nftDeleted",
      "type": "event"
    },
    {
      "anonymous": false,
      "inputs": [
        {
          "indexed": true,
          "internalType": "address",
          "name": "by",
          "type": "address"
        },
        {
          "indexed": false,
          "internalType": "uint256",
          "name": "nftId",
          "type": "uint256"
        }
      ],
      "name": "nftMinted",
      "type": "event"
    },
    {
      "anonymous": false,
      "inputs": [
        {
          "indexed": true,
          "internalType": "address",
          "name": "from",
          "type": "address"
        },
        {
          "indexed": true,
          "internalType": "address",
          "name": "to",
          "type": "address"
        },
        {
          "indexed": false,
          "internalType": "uint256",
          "name": "nftID",
          "type": "uint256"
        }
      ],
      "name": "ownershipTransfer",
      "type": "event"
    },
    {
      "inputs": [
        {
          "internalType": "address",
          "name": "",
          "type": "address"
        },
        {
          "internalType": "uint256",
          "name": "",
          "type": "uint256"
        }
      ],
      "name": "biddedOn",
      "outputs": [
        {
          "internalType": "uint256",
          "name": "",
          "type": "uint256"
        }
      ],
      "stateMutability": "view",
      "type": "function"
    },
    {
      "inputs": [
        {
          "internalType": "uint256",
          "name": "",
          "type": "uint256"
        }
      ],
      "name": "bids",
      "outputs": [
        {
          "internalType": "uint256",
          "name": "higgestAmount",
          "type": "uint256"
        },
        {
          "internalType": "address",
          "name": "higgestBidder",
          "type": "address"
        },
        {
          "internalType": "uint256",
          "name": "biddersCount",
          "type": "uint256"
        }
      ],
      "stateMutability": "view",
      "type": "function"
    },
    {
      "inputs": [
        {
          "internalType": "string",
          "name": "_name",
          "type": "string"
        },
        {
          "internalType": "uint256",
          "name": "_price",
          "type": "uint256"
        }
      ],
      "name": "mint",
      "outputs": [],
      "stateMutability": "nonpayable",
      "type": "function"
    },
    {
      "inputs": [
        {
          "internalType": "uint256",
          "name": "_id",
          "type": "uint256"
        }
      ],
      "name": "getNFT",
      "outputs": [
        {
          "components": [
            {
              "internalType": "uint256",
              "name": "id",
              "type": "uint256"
            },
            {
              "internalType": "string",
              "name": "name",
              "type": "string"
            },
            {
              "internalType": "uint256",
              "name": "price",
              "type": "uint256"
            },
            {
              "internalType": "address",
              "name": "owner",
              "type": "address"
            },
            {
              "internalType": "bool",
              "name": "isForSale",
              "type": "bool"
            }
          ],
          "internalType": "struct NFT.nft",
          "name": "",
          "type": "tuple"
        }
      ],
      "stateMutability": "view",
      "type": "function"
    },
    {
      "inputs": [],
      "name": "nftIDForBidding",
      "outputs": [
        {
          "internalType": "uint256[]",
          "name": "",
          "type": "uint256[]"
        }
      ],
      "stateMutability": "view",
      "type": "function"
    },
    {
      "inputs": [
        {
          "internalType": "uint256",
          "name": "_id",
          "type": "uint256"
        }
      ],
      "name": "deleteNFT",
      "outputs": [],
      "stateMutability": "nonpayable",
      "type": "function"
    },
    {
      "inputs": [],
      "name": "own",
      "outputs": [
        {
          "internalType": "uint256[]",
          "name": "",
          "type": "uint256[]"
        }
      ],
      "stateMutability": "view",
      "type": "function"
    },
    {
      "inputs": [
        {
          "internalType": "uint256",
          "name": "_id",
          "type": "uint256"
        }
      ],
      "name": "makeNFTForSale",
      "outputs": [],
      "stateMutability": "nonpayable",
      "type": "function"
    },
    {
      "inputs": [
        {
          "internalType": "uint256",
          "name": "_id",
          "type": "uint256"
        }
      ],
      "name": "bid",
      "outputs": [],
      "stateMutability": "payable",
      "type": "function"
    },
    {
      "inputs": [],
      "name": "ownBids",
      "outputs": [
        {
          "internalType": "uint256[]",
          "name": "",
          "type": "uint256[]"
        }
      ],
      "stateMutability": "view",
      "type": "function"
    },
    {
      "inputs": [
        {
          "internalType": "uint256",
          "name": "_id",
          "type": "uint256"
        }
      ],
      "name": "declareWinner",
      "outputs": [
        {
          "internalType": "address",
          "name": "",
          "type": "address"
        }
      ],
      "stateMutability": "nonpayable",
      "type": "function"
    }
  ],
  "bytecode": "0x6080604052600060035534801561001557600080fd5b50611e03806100256000396000f3fe60806040526004361061009b5760003560e01c8063454a2ab311610064578063454a2ab3146101ad578063576f7ea7146101c95780637220065e1461020657806399cdee0e1461023157806399f3e2cb1461025c578063f687ed57146102855761009b565b8062c2943c146100a0578063056b01ce146100dd578063327794f91461010657806343dc56dd146101315780634423c5f11461016e575b600080fd5b3480156100ac57600080fd5b506100c760048036038101906100c29190611552565b6102ae565b6040516100d491906115c0565b60405180910390f35b3480156100e957600080fd5b5061010460048036038101906100ff9190611721565b61089e565b005b34801561011257600080fd5b5061011b6109fb565b604051610128919061183b565b60405180910390f35b34801561013d57600080fd5b5061015860048036038101906101539190611889565b610a90565b60405161016591906118d8565b60405180910390f35b34801561017a57600080fd5b5061019560048036038101906101909190611552565b610ac1565b6040516101a4939291906118f3565b60405180910390f35b6101c760048036038101906101c29190611552565b610b0b565b005b3480156101d557600080fd5b506101f060048036038101906101eb9190611552565b610e5c565b6040516101fd9190611a52565b60405180910390f35b34801561021257600080fd5b5061021b610fe3565b604051610228919061183b565b60405180910390f35b34801561023d57600080fd5b5061024661103b565b604051610253919061183b565b60405180910390f35b34801561026857600080fd5b50610283600480360381019061027e9190611552565b6110d0565b005b34801561029157600080fd5b506102ac60048036038101906102a79190611552565b611213565b005b60008160035481106102f5576040517f08c379a00000000000000000000000000000000000000000000000000000000081526004016102ec90611ad1565b60405180910390fd5b60008082815260200190815260200160002060030160009054906101000a900473ffffffffffffffffffffffffffffffffffffffff1673ffffffffffffffffffffffffffffffffffffffff163373ffffffffffffffffffffffffffffffffffffffff1614610398576040517f08c379a000000000000000000000000000000000000000000000000000000000815260040161038f90611b3d565b60405180910390fd5b60008084815260200190815260200160002060030160149054906101000a900460ff166103fa576040517f08c379a00000000000000000000000000000000000000000000000000000000081526004016103f190611ba9565b60405180910390fd5b600160046000858152602001908152602001600020600201541015610454576040517f08c379a000000000000000000000000000000000000000000000000000000000815260040161044b90611c3b565b60405180910390fd5b60005b60046000858152602001908152602001600020600201548110156106825760046000858152602001908152602001600020600401818154811061049d5761049c611c5b565b5b9060005260206000200160009054906101000a900473ffffffffffffffffffffffffffffffffffffffff1673ffffffffffffffffffffffffffffffffffffffff166004600086815260200190815260200160002060010160009054906101000a900473ffffffffffffffffffffffffffffffffffffffff1673ffffffffffffffffffffffffffffffffffffffff161461066f5760046000858152602001908152602001600020600401818154811061055857610557611c5b565b5b9060005260206000200160009054906101000a900473ffffffffffffffffffffffffffffffffffffffff1673ffffffffffffffffffffffffffffffffffffffff166108fc6004600087815260200190815260200160002060030160006004600089815260200190815260200160002060040185815481106105dc576105db611c5b565b5b9060005260206000200160009054906101000a900473ffffffffffffffffffffffffffffffffffffffff1673ffffffffffffffffffffffffffffffffffffffff1673ffffffffffffffffffffffffffffffffffffffff168152602001908152602001600020549081150290604051600060405180830381858888f1935050505015801561066d573d6000803e3d6000fd5b505b808061067a90611cb9565b915050610457565b5060006004600085815260200190815260200160002060010160009054906101000a900473ffffffffffffffffffffffffffffffffffffffff16905060008085815260200190815260200160002060030160009054906101000a900473ffffffffffffffffffffffffffffffffffffffff1673ffffffffffffffffffffffffffffffffffffffff166108fc60046000878152602001908152602001600020600001549081150290604051600060405180830381858888f1935050505015801561074f573d6000803e3d6000fd5b508060008086815260200190815260200160002060030160006101000a81548173ffffffffffffffffffffffffffffffffffffffff021916908373ffffffffffffffffffffffffffffffffffffffff160217905550600080600086815260200190815260200160002060030160146101000a81548160ff021916908315150217905550600460008581526020019081526020016000206000808201600090556001820160006101000a81549073ffffffffffffffffffffffffffffffffffffffff0219169055600282016000905560048201600061082d91906113bd565b50508073ffffffffffffffffffffffffffffffffffffffff163373ffffffffffffffffffffffffffffffffffffffff167f8ac47698a92e85fe6a4de1e347b769f6d71a906c4f1accb6e43f97e516bb2b028660405161088c91906118d8565b60405180910390a38092505050919050565b6000806000600354815260200190815260200160002090506003548160000181905550818160020181905550338160030160006101000a81548173ffffffffffffffffffffffffffffffffffffffff021916908373ffffffffffffffffffffffffffffffffffffffff160217905550828160010190805190602001906109259291906113de565b503373ffffffffffffffffffffffffffffffffffffffff167fbbedd439cfe8aa51324de58375e6ffccc4ac766d72b9aaeb8a0e4960923ea41660035460405161096e91906118d8565b60405180910390a2600160003373ffffffffffffffffffffffffffffffffffffffff1673ffffffffffffffffffffffffffffffffffffffff1681526020019081526020016000206003549080600181540180825580915050600190039060005260206000200160009091909190915055600360008154809291906109f190611cb9565b9190505550505050565b6060600560003373ffffffffffffffffffffffffffffffffffffffff1673ffffffffffffffffffffffffffffffffffffffff168152602001908152602001600020805480602002602001604051908101604052809291908181526020018280548015610a8657602002820191906000526020600020905b815481526020019060010190808311610a72575b5050505050905090565b60056020528160005260406000208181548110610aac57600080fd5b90600052602060002001600091509150505481565b60046020528060005260406000206000915090508060000154908060010160009054906101000a900473ffffffffffffffffffffffffffffffffffffffff16908060020154905083565b600073ffffffffffffffffffffffffffffffffffffffff1660008083815260200190815260200160002060030160009054906101000a900473ffffffffffffffffffffffffffffffffffffffff1673ffffffffffffffffffffffffffffffffffffffff1603610baf576040517f08c379a0000000000000000000000000000000000000000000000000000000008152600401610ba690611ad1565b60405180910390fd5b60008082815260200190815260200160002060030160149054906101000a900460ff16610c11576040517f08c379a0000000000000000000000000000000000000000000000000000000008152600401610c0890611ba9565b60405180910390fd5b34600080838152602001908152602001600020600201541115610c69576040517f08c379a0000000000000000000000000000000000000000000000000000000008152600401610c6090611d4d565b60405180910390fd5b6004600082815260200190815260200160002060000154341115610cf857346004600083815260200190815260200160002060000181905550336004600083815260200190815260200160002060010160006101000a81548173ffffffffffffffffffffffffffffffffffffffff021916908373ffffffffffffffffffffffffffffffffffffffff1602179055505b600460008281526020019081526020016000206002016000815480929190610d1f90611cb9565b9190505550346004600083815260200190815260200160002060030160003373ffffffffffffffffffffffffffffffffffffffff1673ffffffffffffffffffffffffffffffffffffffff1681526020019081526020016000208190555060046000828152602001908152602001600020600401339080600181540180825580915050600190039060005260206000200160009091909190916101000a81548173ffffffffffffffffffffffffffffffffffffffff021916908373ffffffffffffffffffffffffffffffffffffffff160217905550600560003373ffffffffffffffffffffffffffffffffffffffff1673ffffffffffffffffffffffffffffffffffffffff16815260200190815260200160002081908060018154018082558091505060019003906000526020600020016000909190919091505550565b610e64611464565b6003548210610ea8576040517f08c379a0000000000000000000000000000000000000000000000000000000008152600401610e9f90611ad1565b60405180910390fd5b6000808381526020019081526020016000206040518060a001604052908160008201548152602001600182018054610edf90611d9c565b80601f0160208091040260200160405190810160405280929190818152602001828054610f0b90611d9c565b8015610f585780601f10610f2d57610100808354040283529160200191610f58565b820191906000526020600020905b815481529060010190602001808311610f3b57829003601f168201915b50505050508152602001600282015481526020016003820160009054906101000a900473ffffffffffffffffffffffffffffffffffffffff1673ffffffffffffffffffffffffffffffffffffffff1673ffffffffffffffffffffffffffffffffffffffff1681526020016003820160149054906101000a900460ff1615151515815250509050919050565b6060600280548060200260200160405190810160405280929190818152602001828054801561103157602002820191906000526020600020905b81548152602001906001019080831161101d575b5050505050905090565b6060600160003373ffffffffffffffffffffffffffffffffffffffff1673ffffffffffffffffffffffffffffffffffffffff1681526020019081526020016000208054806020026020016040519081016040528092919081815260200182805480156110c657602002820191906000526020600020905b8154815260200190600101908083116110b2575b5050505050905090565b806003548110611115576040517f08c379a000000000000000000000000000000000000000000000000000000000815260040161110c90611ad1565b60405180910390fd5b60008082815260200190815260200160002060030160009054906101000a900473ffffffffffffffffffffffffffffffffffffffff1673ffffffffffffffffffffffffffffffffffffffff163373ffffffffffffffffffffffffffffffffffffffff16146111b8576040517f08c379a00000000000000000000000000000000000000000000000000000000081526004016111af90611b3d565b60405180910390fd5b600160008084815260200190815260200160002060030160146101000a81548160ff02191690831515021790555060028290806001815401808255809150506001900390600052602060002001600090919091909150555050565b806003548110611258576040517f08c379a000000000000000000000000000000000000000000000000000000000815260040161124f90611ad1565b60405180910390fd5b60008082815260200190815260200160002060030160009054906101000a900473ffffffffffffffffffffffffffffffffffffffff1673ffffffffffffffffffffffffffffffffffffffff163373ffffffffffffffffffffffffffffffffffffffff16146112fb576040517f08c379a00000000000000000000000000000000000000000000000000000000081526004016112f290611b3d565b60405180910390fd5b60008083815260200190815260200160002060008082016000905560018201600061132691906114ab565b60028201600090556003820160006101000a81549073ffffffffffffffffffffffffffffffffffffffff02191690556003820160146101000a81549060ff021916905550503373ffffffffffffffffffffffffffffffffffffffff167fa2f83deed7bb7bbaaa1c02861ebf88b82521122918d0d53270c201728e451f82836040516113b191906118d8565b60405180910390a25050565b50805460008255906000526020600020908101906113db91906114eb565b50565b8280546113ea90611d9c565b90600052602060002090601f01602090048101928261140c5760008555611453565b82601f1061142557805160ff1916838001178555611453565b82800160010185558215611453579182015b82811115611452578251825591602001919060010190611437565b5b50905061146091906114eb565b5090565b6040518060a00160405280600081526020016060815260200160008152602001600073ffffffffffffffffffffffffffffffffffffffff1681526020016000151581525090565b5080546114b790611d9c565b6000825580601f106114c957506114e8565b601f0160209004906000526020600020908101906114e791906114eb565b5b50565b5b808211156115045760008160009055506001016114ec565b5090565b6000604051905090565b600080fd5b600080fd5b6000819050919050565b61152f8161151c565b811461153a57600080fd5b50565b60008135905061154c81611526565b92915050565b60006020828403121561156857611567611512565b5b60006115768482850161153d565b91505092915050565b600073ffffffffffffffffffffffffffffffffffffffff82169050919050565b60006115aa8261157f565b9050919050565b6115ba8161159f565b82525050565b60006020820190506115d560008301846115b1565b92915050565b600080fd5b600080fd5b6000601f19601f8301169050919050565b7f4e487b7100000000000000000000000000000000000000000000000000000000600052604160045260246000fd5b61162e826115e5565b810181811067ffffffffffffffff8211171561164d5761164c6115f6565b5b80604052505050565b6000611660611508565b905061166c8282611625565b919050565b600067ffffffffffffffff82111561168c5761168b6115f6565b5b611695826115e5565b9050602081019050919050565b82818337600083830152505050565b60006116c46116bf84611671565b611656565b9050828152602081018484840111156116e0576116df6115e0565b5b6116eb8482856116a2565b509392505050565b600082601f830112611708576117076115db565b5b81356117188482602086016116b1565b91505092915050565b6000806040838503121561173857611737611512565b5b600083013567ffffffffffffffff81111561175657611755611517565b5b611762858286016116f3565b92505060206117738582860161153d565b9150509250929050565b600081519050919050565b600082825260208201905092915050565b6000819050602082019050919050565b6117b28161151c565b82525050565b60006117c483836117a9565b60208301905092915050565b6000602082019050919050565b60006117e88261177d565b6117f28185611788565b93506117fd83611799565b8060005b8381101561182e57815161181588826117b8565b9750611820836117d0565b925050600181019050611801565b5085935050505092915050565b6000602082019050818103600083015261185581846117dd565b905092915050565b6118668161159f565b811461187157600080fd5b50565b6000813590506118838161185d565b92915050565b600080604083850312156118a05761189f611512565b5b60006118ae85828601611874565b92505060206118bf8582860161153d565b9150509250929050565b6118d28161151c565b82525050565b60006020820190506118ed60008301846118c9565b92915050565b600060608201905061190860008301866118c9565b61191560208301856115b1565b61192260408301846118c9565b949350505050565b600081519050919050565b600082825260208201905092915050565b60005b83811015611964578082015181840152602081019050611949565b83811115611973576000848401525b50505050565b60006119848261192a565b61198e8185611935565b935061199e818560208601611946565b6119a7816115e5565b840191505092915050565b6119bb8161159f565b82525050565b60008115159050919050565b6119d6816119c1565b82525050565b600060a0830160008301516119f460008601826117a9565b5060208301518482036020860152611a0c8282611979565b9150506040830151611a2160408601826117a9565b506060830151611a3460608601826119b2565b506080830151611a4760808601826119cd565b508091505092915050565b60006020820190508181036000830152611a6c81846119dc565b905092915050565b600082825260208201905092915050565b7f6e6674206e6f7420666f756e6400000000000000000000000000000000000000600082015250565b6000611abb600d83611a74565b9150611ac682611a85565b602082019050919050565b60006020820190508181036000830152611aea81611aae565b9050919050565b7f796f7520617265206e6f74206f776e6572000000000000000000000000000000600082015250565b6000611b27601183611a74565b9150611b3282611af1565b602082019050919050565b60006020820190508181036000830152611b5681611b1a565b9050919050565b7f6e6674206973206e6f7420666f722073616c6500000000000000000000000000600082015250565b6000611b93601383611a74565b9150611b9e82611b5d565b602082019050919050565b60006020820190508181036000830152611bc281611b86565b9050919050565b7f6e6f206f6e6520626964646564207965742c207761697420666f7220736f6d6560008201527f2074696d65000000000000000000000000000000000000000000000000000000602082015250565b6000611c25602583611a74565b9150611c3082611bc9565b604082019050919050565b60006020820190508181036000830152611c5481611c18565b9050919050565b7f4e487b7100000000000000000000000000000000000000000000000000000000600052603260045260246000fd5b7f4e487b7100000000000000000000000000000000000000000000000000000000600052601160045260246000fd5b6000611cc48261151c565b91507fffffffffffffffffffffffffffffffffffffffffffffffffffffffffffffffff8203611cf657611cf5611c8a565b5b600182019050919050565b7f76616c75652073686f756c64206265203e3d207072696365206f66206e667400600082015250565b6000611d37601f83611a74565b9150611d4282611d01565b602082019050919050565b60006020820190508181036000830152611d6681611d2a565b9050919050565b7f4e487b7100000000000000000000000000000000000000000000000000000000600052602260045260246000fd5b60006002820490506001821680611db457607f821691505b602082108103611dc757611dc6611d6d565b5b5091905056fea26469706673582212203d92683991bcd3efc04728642485827e1654ead5f74eb4ee4e26c46c88c43aec64736f6c634300080d0033",
  "immutableReferences": {},
  "source": "// SPDX-License-Identifier: MIT\npragma solidity >=0.4.22 <0.9.0;\n\ncontract NFT {\n    struct nft {\n        uint256 id;\n        string name;\n        uint256 price;\n        address owner;\n        bool isForSale;\n    }\n    struct nftBidding {\n        uint256 higgestAmount;\n        address higgestBidder;\n        uint256 biddersCount;\n        mapping(address => uint256) biddingAmount;\n        address[] bidders;\n    }\n    mapping(uint256 => nft) minted;\n    mapping(address => uint256[]) addressToNFTID;\n    uint256[] forSale;\n    uint256 index = 0;\n    mapping(uint256 => nftBidding) public bids;\n    //  a person bidded to which nft\n    mapping(address => uint256[]) public biddedOn;\n\n    constructor() {}\n\n    event nftMinted(address indexed by, uint256 nftId);\n    event nftDeleted(address indexed by, uint256 nftId);\n    event ownershipTransfer(\n        address indexed from,\n        address indexed to,\n        uint256 nftID\n    );\n    modifier onlyOwner(uint256 _id) {\n        require(_id < index, \"nft not found\");\n        require(msg.sender == minted[_id].owner, \"you are not owner\");\n        _;\n    }\n\n    function mint(string memory _name, uint256 _price) public {\n        nft storage newNFT = minted[index];\n        newNFT.id = index;\n        newNFT.price = _price;\n        newNFT.owner = msg.sender;\n        newNFT.name = _name;\n        emit nftMinted(msg.sender, index);\n        addressToNFTID[msg.sender].push(index);\n        index++;\n    }\n\n    function getNFT(uint256 _id) public view returns (nft memory) {\n        require(_id < index, \"nft not found\");\n        return minted[_id];\n    }\n\n    function nftIDForBidding() public view returns (uint256[] memory) {\n        return forSale;\n    }\n\n    function deleteNFT(uint256 _id) public onlyOwner(_id) {\n        delete minted[_id];\n        emit nftDeleted(msg.sender, _id);\n    }\n\n    // returns nft owned by msg.sender\n    function own() public view returns (uint256[] memory) {\n        return addressToNFTID[msg.sender];\n    }\n\n    //owner of nft can make their nft for sale so that others can bid on it\n    function makeNFTForSale(uint256 _id) public onlyOwner(_id) {\n        minted[_id].isForSale = true;\n        forSale.push(_id);\n    }\n\n    //it is use to bid on nft with id _id which are for sale\n    function bid(uint256 _id) public payable {\n        require(minted[_id].owner != address(0), \"nft not found\");\n        require(minted[_id].isForSale, \"nft is not for sale\");\n        require(\n            minted[_id].price <= msg.value,\n            \"value should be >= price of nft\"\n        );\n        if (msg.value > bids[_id].higgestAmount) {\n            bids[_id].higgestAmount = msg.value;\n            bids[_id].higgestBidder = msg.sender;\n        }\n        bids[_id].biddersCount++;\n        bids[_id].biddingAmount[msg.sender] = msg.value;\n        bids[_id].bidders.push(msg.sender);\n        biddedOn[msg.sender].push(_id);\n    }\n\n    /*\n        returns id of nft to which msg.sender bidded on\n   */\n    function ownBids() public view returns (uint256[] memory) {\n        return biddedOn[msg.sender];\n    }\n\n    /*\n        only owner will declare winner over bidding and ownership of nft will be transsfer to\n        higgest bidder and ether will be revert back to address who lost, \n        higgest bidder ether will be transfer to old nft owner\n   */\n    function declareWinner(uint256 _id)\n        public\n        onlyOwner(_id)\n        returns (address)\n    {\n        require(minted[_id].isForSale, \"nft is not for sale\");\n        require(\n            bids[_id].biddersCount >= 1,\n            \"no one bidded yet, wait for some time\"\n        );\n        for (uint256 i = 0; i < bids[_id].biddersCount; i++) {\n            if (bids[_id].higgestBidder != bids[_id].bidders[i]) {\n                // transfer their money who lost\n                payable(address(bids[_id].bidders[i])).transfer(\n                    bids[_id].biddingAmount[bids[_id].bidders[i]]\n                );\n            }\n        }\n        address winner = bids[_id].higgestBidder;\n        payable(minted[_id].owner).transfer(bids[_id].higgestAmount);\n        minted[_id].owner = winner;\n        minted[_id].isForSale = false;\n        delete bids[_id];\n        emit ownershipTransfer(msg.sender, winner, _id);\n        return winner;\n    }\n}\n",
  "sourcePath": "/mnt/d/BlockChain/Ethereum/nft/contracts/NFT.sol",
  "compiler": {
    "name": "solc",
    "version": "0.8.13+commit.abaa5c0e.Emscripten.clang"
  },
  "schemaVersion": "3.4.7",
  "updatedAt": "2022-05-11T13:49:23.285Z",
  "devdoc": {
    "kind": "dev",
    "methods": {},
    "version": 1
  },
  "userdoc": {
    "kind": "user",
    "methods": {},
    "version": 1
  }
}